S01400004D4F544F525749544850574D2E737265634F
S11300000C942A000C943C000C943C000C943C008E
S11300100C943C000C943C000C943C000C943C006C
S11300200C943C000C943C000C943C000C943C005C
S11300300C943C000C943C000C943C000C943C004C
S11300400C943C000C943C000C943C000C943C003C
S11300500C943C0011241FBECFE5D4E0DEBFCDBF1D
S113006020E0A0E6B0E001C01D92A136B207E1F79E
S11300700E9495000C944C020C940000909A919864
S1130080929A939808959098919A9298939A089531
S113009090989198929A93980895909A919892989A
S11300A09398089590989198929893980895853686
S11300B09105D0F5BC0180E090E00E945B0120E056
S11300C030E048EC52E40E94C20020E030E04FE708
S11300D053E40E94E9010E942A0180916000811189
S11300E006C089E683BFBB9A6CBFC39A0895833068
S11300F049F489E68FBD8C9A862F972F9BBD8ABDC4
S1130100949A0895843049F489E68EBD8D9A862F99
S1130110972F99BD88BD959A0895823029F489E670
S113012085BDA49A63BDAC9A08951ABA8FEF8BBBB0
S113013081BBC89907C084E690E00E9457000E94E2
S11301403E00F7CFC99907C082E390E00E945700B0
S11301500E944800EECFCA9907C082E390E00E9453
S113016057000E944D00E5CFCB9907C084E690E08C
S11301700E9457000E944300DCCFCC99DACF0E9442
S11301805200D7CF0CD0EBC0E3D040F0DAD030F03F
S113019021F45F3F19F0CCC0511115C1CFC0F0D08C
S11301A098F39923C9F35523B1F3951B550BBB273A
S11301B0AA2762177307840738F09F5F5F4F220FE7
S11301C0331F441FAA1FA9F333D00E2E3AF0E0E8E0
S11301D030D091505040E695001CCAF729D0FE2F2C
S11301E027D0660F771F881FBB1F261737074807BE
S11301F0AB07B0E809F0BB0B802DBF01FF27935874
S11302005F4F2AF09E3F510568F092C0DCC05F3F0B
S1130210ECF3983EDCF3869577956795B795F7955B
S11302209F5FC9F7880F911D9695879597F9089553
S1130230E1E0660F771F881FBB1F621773078407EF
S1130240BA0720F0621B730B840BBA0BEE1F88F7FE
S1130250E095089504D06894B111B5C0089598D07C
S113026088F09F5790F0B92F9927B751A0F0D1F09B
S1130270660F771F881F991F1AF0BA95C9F712C025
S1130280B13081F09FD0B1E008959CC0672F782FE2
S11302908827B85F39F0B93FCCF386957795679591
S11302A0B395D9F73EF490958095709561957F4FFD
S11302B08F4F9F4F0895E89409C097FB3EF49095A3
S11302C08095709561957F4F8F4F9F4F9923A9F02B
S11302D0F92F96E9BB279395F695879577956795BA
S11302E0B795F111F8CFFAF4BB0F11F460FF1BC0FE
S11302F06F5F7F4F8F4F9F4F16C0882311F096E991
S113030011C0772321F09EE8872F762F05C066233E
S113031071F096E8862F70E060E02AF09A95660FF7
S1130320771F881FDAF7880F9695879597F90895B0
S113033097F99F6780E870E060E008959FEF80EC94
S1130340089500240A941616170618060906089537
S113035000240A9412161306140605060895092E9D
S11303600394000C11F4882352F0BB0F40F4BF2B0C
S113037011F460FF04C06F5F7F4F8F4F9F4F08954C
S113038057FD9058440F551F59F05F3F71F0479542
S1130390880F97FB991F61F09F3F79F08795089527
S11303A0121613061406551FF2CF4695F1DF08C046
S11303B0161617061806991FF1CF86957105610563
S11303C008940895E894BB2766277727CB0197F90B
S11303D008950BD0C4CFB5DF28F0BADF18F0952309
S11303E009F0A6CFABCF1124EECFCADFA0F3959FBF
S11303F0D1F3950F50E0551F629FF001729FBB2708
S1130400F00DB11D639FAA27F00DB11DAA1F649FB3
S11304106627B00DA11D661F829F2227B00DA11D66
S1130420621F739FB00DA11D621F839FA00D611DEC
S1130430221F749F3327A00D611D231F849F600D0D
S1130440211D822F762F6A2F11249F5750408AF046
S1130450E1F088234AF0EE0FFF1FBB1F661F771FD2
S1130460881F91505040A9F79E3F510570F060CF0E
S1130470AACF5F3FECF3983EDCF3869577956795BA
S1130480B795F795E7959F5FC1F7FE2B880F911DF0
S10F04909695879597F90895F894FFCF8E
S9030000FC
